{
  "_format": "hh-sol-artifact-1",
  "contractName": "MockNFT",
  "sourceName": "contracts/MockNFT.sol",
  "abi": [
    {
      "inputs": [],
      "stateMutability": "nonpayable",
      "type": "constructor"
    },
    {
      "inputs": [
        {
          "internalType": "address",
          "name": "sender",
          "type": "address"
        },
        {
          "internalType": "uint256",
          "name": "tokenId",
          "type": "uint256"
        },
        {
          "internalType": "address",
          "name": "owner",
          "type": "address"
        }
      ],
      "name": "ERC721IncorrectOwner",
      "type": "error"
    },
    {
      "inputs": [
        {
          "internalType": "address",
          "name": "operator",
          "type": "address"
        },
        {
          "internalType": "uint256",
          "name": "tokenId",
          "type": "uint256"
        }
      ],
      "name": "ERC721InsufficientApproval",
      "type": "error"
    },
    {
      "inputs": [
        {
          "internalType": "address",
          "name": "approver",
          "type": "address"
        }
      ],
      "name": "ERC721InvalidApprover",
      "type": "error"
    },
    {
      "inputs": [
        {
          "internalType": "address",
          "name": "operator",
          "type": "address"
        }
      ],
      "name": "ERC721InvalidOperator",
      "type": "error"
    },
    {
      "inputs": [
        {
          "internalType": "address",
          "name": "owner",
          "type": "address"
        }
      ],
      "name": "ERC721InvalidOwner",
      "type": "error"
    },
    {
      "inputs": [
        {
          "internalType": "address",
          "name": "receiver",
          "type": "address"
        }
      ],
      "name": "ERC721InvalidReceiver",
      "type": "error"
    },
    {
      "inputs": [
        {
          "internalType": "address",
          "name": "sender",
          "type": "address"
        }
      ],
      "name": "ERC721InvalidSender",
      "type": "error"
    },
    {
      "inputs": [
        {
          "internalType": "uint256",
          "name": "tokenId",
          "type": "uint256"
        }
      ],
      "name": "ERC721NonexistentToken",
      "type": "error"
    },
    {
      "inputs": [
        {
          "internalType": "address",
          "name": "owner",
          "type": "address"
        }
      ],
      "name": "OwnableInvalidOwner",
      "type": "error"
    },
    {
      "inputs": [
        {
          "internalType": "address",
          "name": "account",
          "type": "address"
        }
      ],
      "name": "OwnableUnauthorizedAccount",
      "type": "error"
    },
    {
      "anonymous": false,
      "inputs": [
        {
          "indexed": true,
          "internalType": "address",
          "name": "owner",
          "type": "address"
        },
        {
          "indexed": true,
          "internalType": "address",
          "name": "approved",
          "type": "address"
        },
        {
          "indexed": true,
          "internalType": "uint256",
          "name": "tokenId",
          "type": "uint256"
        }
      ],
      "name": "Approval",
      "type": "event"
    },
    {
      "anonymous": false,
      "inputs": [
        {
          "indexed": true,
          "internalType": "address",
          "name": "owner",
          "type": "address"
        },
        {
          "indexed": true,
          "internalType": "address",
          "name": "operator",
          "type": "address"
        },
        {
          "indexed": false,
          "internalType": "bool",
          "name": "approved",
          "type": "bool"
        }
      ],
      "name": "ApprovalForAll",
      "type": "event"
    },
    {
      "anonymous": false,
      "inputs": [
        {
          "indexed": true,
          "internalType": "address",
          "name": "previousOwner",
          "type": "address"
        },
        {
          "indexed": true,
          "internalType": "address",
          "name": "newOwner",
          "type": "address"
        }
      ],
      "name": "OwnershipTransferred",
      "type": "event"
    },
    {
      "anonymous": false,
      "inputs": [
        {
          "indexed": true,
          "internalType": "address",
          "name": "from",
          "type": "address"
        },
        {
          "indexed": true,
          "internalType": "address",
          "name": "to",
          "type": "address"
        },
        {
          "indexed": true,
          "internalType": "uint256",
          "name": "tokenId",
          "type": "uint256"
        }
      ],
      "name": "Transfer",
      "type": "event"
    },
    {
      "inputs": [
        {
          "internalType": "address",
          "name": "to",
          "type": "address"
        },
        {
          "internalType": "uint256",
          "name": "tokenId",
          "type": "uint256"
        }
      ],
      "name": "approve",
      "outputs": [],
      "stateMutability": "nonpayable",
      "type": "function"
    },
    {
      "inputs": [
        {
          "internalType": "address",
          "name": "owner",
          "type": "address"
        }
      ],
      "name": "balanceOf",
      "outputs": [
        {
          "internalType": "uint256",
          "name": "",
          "type": "uint256"
        }
      ],
      "stateMutability": "view",
      "type": "function"
    },
    {
      "inputs": [
        {
          "internalType": "uint256",
          "name": "tokenId",
          "type": "uint256"
        }
      ],
      "name": "getApproved",
      "outputs": [
        {
          "internalType": "address",
          "name": "",
          "type": "address"
        }
      ],
      "stateMutability": "view",
      "type": "function"
    },
    {
      "inputs": [
        {
          "internalType": "address",
          "name": "owner",
          "type": "address"
        },
        {
          "internalType": "address",
          "name": "operator",
          "type": "address"
        }
      ],
      "name": "isApprovedForAll",
      "outputs": [
        {
          "internalType": "bool",
          "name": "",
          "type": "bool"
        }
      ],
      "stateMutability": "view",
      "type": "function"
    },
    {
      "inputs": [
        {
          "internalType": "address",
          "name": "to",
          "type": "address"
        }
      ],
      "name": "mint",
      "outputs": [],
      "stateMutability": "nonpayable",
      "type": "function"
    },
    {
      "inputs": [],
      "name": "name",
      "outputs": [
        {
          "internalType": "string",
          "name": "",
          "type": "string"
        }
      ],
      "stateMutability": "view",
      "type": "function"
    },
    {
      "inputs": [],
      "name": "nextTokenId",
      "outputs": [
        {
          "internalType": "uint256",
          "name": "",
          "type": "uint256"
        }
      ],
      "stateMutability": "view",
      "type": "function"
    },
    {
      "inputs": [],
      "name": "owner",
      "outputs": [
        {
          "internalType": "address",
          "name": "",
          "type": "address"
        }
      ],
      "stateMutability": "view",
      "type": "function"
    },
    {
      "inputs": [
        {
          "internalType": "uint256",
          "name": "tokenId",
          "type": "uint256"
        }
      ],
      "name": "ownerOf",
      "outputs": [
        {
          "internalType": "address",
          "name": "",
          "type": "address"
        }
      ],
      "stateMutability": "view",
      "type": "function"
    },
    {
      "inputs": [],
      "name": "renounceOwnership",
      "outputs": [],
      "stateMutability": "nonpayable",
      "type": "function"
    },
    {
      "inputs": [
        {
          "internalType": "address",
          "name": "from",
          "type": "address"
        },
        {
          "internalType": "address",
          "name": "to",
          "type": "address"
        },
        {
          "internalType": "uint256",
          "name": "tokenId",
          "type": "uint256"
        }
      ],
      "name": "safeTransferFrom",
      "outputs": [],
      "stateMutability": "nonpayable",
      "type": "function"
    },
    {
      "inputs": [
        {
          "internalType": "address",
          "name": "from",
          "type": "address"
        },
        {
          "internalType": "address",
          "name": "to",
          "type": "address"
        },
        {
          "internalType": "uint256",
          "name": "tokenId",
          "type": "uint256"
        },
        {
          "internalType": "bytes",
          "name": "data",
          "type": "bytes"
        }
      ],
      "name": "safeTransferFrom",
      "outputs": [],
      "stateMutability": "nonpayable",
      "type": "function"
    },
    {
      "inputs": [
        {
          "internalType": "address",
          "name": "operator",
          "type": "address"
        },
        {
          "internalType": "bool",
          "name": "approved",
          "type": "bool"
        }
      ],
      "name": "setApprovalForAll",
      "outputs": [],
      "stateMutability": "nonpayable",
      "type": "function"
    },
    {
      "inputs": [
        {
          "internalType": "bytes4",
          "name": "interfaceId",
          "type": "bytes4"
        }
      ],
      "name": "supportsInterface",
      "outputs": [
        {
          "internalType": "bool",
          "name": "",
          "type": "bool"
        }
      ],
      "stateMutability": "view",
      "type": "function"
    },
    {
      "inputs": [],
      "name": "symbol",
      "outputs": [
        {
          "internalType": "string",
          "name": "",
          "type": "string"
        }
      ],
      "stateMutability": "view",
      "type": "function"
    },
    {
      "inputs": [
        {
          "internalType": "uint256",
          "name": "tokenId",
          "type": "uint256"
        }
      ],
      "name": "tokenURI",
      "outputs": [
        {
          "internalType": "string",
          "name": "",
          "type": "string"
        }
      ],
      "stateMutability": "view",
      "type": "function"
    },
    {
      "inputs": [
        {
          "internalType": "address",
          "name": "from",
          "type": "address"
        },
        {
          "internalType": "address",
          "name": "to",
          "type": "address"
        },
        {
          "internalType": "uint256",
          "name": "tokenId",
          "type": "uint256"
        }
      ],
      "name": "transferFrom",
      "outputs": [],
      "stateMutability": "nonpayable",
      "type": "function"
    },
    {
      "inputs": [
        {
          "internalType": "address",
          "name": "newOwner",
          "type": "address"
        }
      ],
      "name": "transferOwnership",
      "outputs": [],
      "stateMutability": "nonpayable",
      "type": "function"
    }
  ],
  "bytecode": "0x60806040523480156200001157600080fd5b50336040518060400160405280600f81526020017f4574686f734775617264204d6f636b00000000000000000000000000000000008152506040518060400160405280600381526020017f45474d0000000000000000000000000000000000000000000000000000000000815250816000908162000090919062000472565b508060019081620000a2919062000472565b505050600073ffffffffffffffffffffffffffffffffffffffff168173ffffffffffffffffffffffffffffffffffffffff16036200011a5760006040517f1e4fbdf70000000000000000000000000000000000000000000000000000000081526004016200011191906200059e565b60405180910390fd5b6200012b816200013260201b60201c565b50620005bb565b6000600660009054906101000a900473ffffffffffffffffffffffffffffffffffffffff16905081600660006101000a81548173ffffffffffffffffffffffffffffffffffffffff021916908373ffffffffffffffffffffffffffffffffffffffff1602179055508173ffffffffffffffffffffffffffffffffffffffff168173ffffffffffffffffffffffffffffffffffffffff167f8be0079c531659141344cd1fd0a4f28419497f9722a3daafe3b4186f6b6457e060405160405180910390a35050565b600081519050919050565b7f4e487b7100000000000000000000000000000000000000000000000000000000600052604160045260246000fd5b7f4e487b7100000000000000000000000000000000000000000000000000000000600052602260045260246000fd5b600060028204905060018216806200027a57607f821691505b60208210810362000290576200028f62000232565b5b50919050565b60008190508160005260206000209050919050565b60006020601f8301049050919050565b600082821b905092915050565b600060088302620002fa7fffffffffffffffffffffffffffffffffffffffffffffffffffffffffffffffff82620002bb565b620003068683620002bb565b95508019841693508086168417925050509392505050565b6000819050919050565b6000819050919050565b6000620003536200034d62000347846200031e565b62000328565b6200031e565b9050919050565b6000819050919050565b6200036f8362000332565b620003876200037e826200035a565b848454620002c8565b825550505050565b600090565b6200039e6200038f565b620003ab81848462000364565b505050565b5b81811015620003d357620003c760008262000394565b600181019050620003b1565b5050565b601f8211156200042257620003ec8162000296565b620003f784620002ab565b8101602085101562000407578190505b6200041f6200041685620002ab565b830182620003b0565b50505b505050565b600082821c905092915050565b6000620004476000198460080262000427565b1980831691505092915050565b600062000462838362000434565b9150826002028217905092915050565b6200047d82620001f8565b67ffffffffffffffff81111562000499576200049862000203565b5b620004a5825462000261565b620004b2828285620003d7565b600060209050601f831160018114620004ea5760008415620004d5578287015190505b620004e1858262000454565b86555062000551565b601f198416620004fa8662000296565b60005b828110156200052457848901518255600182019150602085019450602081019050620004fd565b8683101562000544578489015162000540601f89168262000434565b8355505b6001600288020188555050505b505050505050565b600073ffffffffffffffffffffffffffffffffffffffff82169050919050565b6000620005868262000559565b9050919050565b620005988162000579565b82525050565b6000602082019050620005b560008301846200058d565b92915050565b6120fb80620005cb6000396000f3fe608060405234801561001057600080fd5b50600436106101165760003560e01c8063715018a6116100a2578063a22cb46511610071578063a22cb465146102cd578063b88d4fde146102e9578063c87b56dd14610305578063e985e9c514610335578063f2fde38b1461036557610116565b8063715018a61461026957806375794a3c146102735780638da5cb5b1461029157806395d89b41146102af57610116565b806323b872dd116100e957806323b872dd146101b557806342842e0e146101d15780636352211e146101ed5780636a6278421461021d57806370a082311461023957610116565b806301ffc9a71461011b57806306fdde031461014b578063081812fc14610169578063095ea7b314610199575b600080fd5b610135600480360381019061013091906118ce565b610381565b6040516101429190611916565b60405180910390f35b610153610463565b60405161016091906119c1565b60405180910390f35b610183600480360381019061017e9190611a19565b6104f5565b6040516101909190611a87565b60405180910390f35b6101b360048036038101906101ae9190611ace565b610511565b005b6101cf60048036038101906101ca9190611b0e565b610527565b005b6101eb60048036038101906101e69190611b0e565b610629565b005b61020760048036038101906102029190611a19565b610649565b6040516102149190611a87565b60405180910390f35b61023760048036038101906102329190611b61565b61065b565b005b610253600480360381019061024e9190611b61565b61068c565b6040516102609190611b9d565b60405180910390f35b610271610746565b005b61027b61075a565b6040516102889190611b9d565b60405180910390f35b610299610760565b6040516102a69190611a87565b60405180910390f35b6102b761078a565b6040516102c491906119c1565b60405180910390f35b6102e760048036038101906102e29190611be4565b61081c565b005b61030360048036038101906102fe9190611d59565b610832565b005b61031f600480360381019061031a9190611a19565b610857565b60405161032c91906119c1565b60405180910390f35b61034f600480360381019061034a9190611ddc565b6108c0565b60405161035c9190611916565b60405180910390f35b61037f600480360381019061037a9190611b61565b610954565b005b60007f80ac58cd000000000000000000000000000000000000000000000000000000007bffffffffffffffffffffffffffffffffffffffffffffffffffffffff1916827bffffffffffffffffffffffffffffffffffffffffffffffffffffffff1916148061044c57507f5b5e139f000000000000000000000000000000000000000000000000000000007bffffffffffffffffffffffffffffffffffffffffffffffffffffffff1916827bffffffffffffffffffffffffffffffffffffffffffffffffffffffff1916145b8061045c575061045b826109da565b5b9050919050565b60606000805461047290611e4b565b80601f016020809104026020016040519081016040528092919081815260200182805461049e90611e4b565b80156104eb5780601f106104c0576101008083540402835291602001916104eb565b820191906000526020600020905b8154815290600101906020018083116104ce57829003601f168201915b5050505050905090565b600061050082610a44565b5061050a82610acc565b9050919050565b610523828261051e610b09565b610b11565b5050565b600073ffffffffffffffffffffffffffffffffffffffff168273ffffffffffffffffffffffffffffffffffffffff16036105995760006040517f64a0ae920000000000000000000000000000000000000000000000000000000081526004016105909190611a87565b60405180910390fd5b60006105ad83836105a8610b09565b610b23565b90508373ffffffffffffffffffffffffffffffffffffffff168173ffffffffffffffffffffffffffffffffffffffff1614610623578382826040517f64283d7b00000000000000000000000000000000000000000000000000000000815260040161061a93929190611e7c565b60405180910390fd5b50505050565b61064483838360405180602001604052806000815250610832565b505050565b600061065482610a44565b9050919050565b610663610d3d565b60006007600081548092919061067890611ee2565b9190505590506106888282610dc4565b5050565b60008073ffffffffffffffffffffffffffffffffffffffff168273ffffffffffffffffffffffffffffffffffffffff16036106ff5760006040517f89c62b640000000000000000000000000000000000000000000000000000000081526004016106f69190611a87565b60405180910390fd5b600360008373ffffffffffffffffffffffffffffffffffffffff1673ffffffffffffffffffffffffffffffffffffffff168152602001908152602001600020549050919050565b61074e610d3d565b6107586000610ebd565b565b60075481565b6000600660009054906101000a900473ffffffffffffffffffffffffffffffffffffffff16905090565b60606001805461079990611e4b565b80601f01602080910402602001604051908101604052809291908181526020018280546107c590611e4b565b80156108125780601f106107e757610100808354040283529160200191610812565b820191906000526020600020905b8154815290600101906020018083116107f557829003601f168201915b5050505050905090565b61082e610827610b09565b8383610f83565b5050565b61083d848484610527565b610851610848610b09565b858585856110f2565b50505050565b606061086282610a44565b50600061086d6112a3565b9050600081511161088d57604051806020016040528060008152506108b8565b80610897846112ba565b6040516020016108a8929190611f66565b6040516020818303038152906040525b915050919050565b6000600560008473ffffffffffffffffffffffffffffffffffffffff1673ffffffffffffffffffffffffffffffffffffffff16815260200190815260200160002060008373ffffffffffffffffffffffffffffffffffffffff1673ffffffffffffffffffffffffffffffffffffffff16815260200190815260200160002060009054906101000a900460ff16905092915050565b61095c610d3d565b600073ffffffffffffffffffffffffffffffffffffffff168173ffffffffffffffffffffffffffffffffffffffff16036109ce5760006040517f1e4fbdf70000000000000000000000000000000000000000000000000000000081526004016109c59190611a87565b60405180910390fd5b6109d781610ebd565b50565b60007f01ffc9a7000000000000000000000000000000000000000000000000000000007bffffffffffffffffffffffffffffffffffffffffffffffffffffffff1916827bffffffffffffffffffffffffffffffffffffffffffffffffffffffff1916149050919050565b600080610a5083611388565b9050600073ffffffffffffffffffffffffffffffffffffffff168173ffffffffffffffffffffffffffffffffffffffff1603610ac357826040517f7e273289000000000000000000000000000000000000000000000000000000008152600401610aba9190611b9d565b60405180910390fd5b80915050919050565b60006004600083815260200190815260200160002060009054906101000a900473ffffffffffffffffffffffffffffffffffffffff169050919050565b600033905090565b610b1e83838360016113c5565b505050565b600080610b2f84611388565b9050600073ffffffffffffffffffffffffffffffffffffffff168373ffffffffffffffffffffffffffffffffffffffff1614610b7157610b7081848661158a565b5b600073ffffffffffffffffffffffffffffffffffffffff168173ffffffffffffffffffffffffffffffffffffffff1614610c0257610bb36000856000806113c5565b6001600360008373ffffffffffffffffffffffffffffffffffffffff1673ffffffffffffffffffffffffffffffffffffffff168152602001908152602001600020600082825403925050819055505b600073ffffffffffffffffffffffffffffffffffffffff168573ffffffffffffffffffffffffffffffffffffffff1614610c85576001600360008773ffffffffffffffffffffffffffffffffffffffff1673ffffffffffffffffffffffffffffffffffffffff168152602001908152602001600020600082825401925050819055505b846002600086815260200190815260200160002060006101000a81548173ffffffffffffffffffffffffffffffffffffffff021916908373ffffffffffffffffffffffffffffffffffffffff160217905550838573ffffffffffffffffffffffffffffffffffffffff168273ffffffffffffffffffffffffffffffffffffffff167fddf252ad1be2c89b69c2b068fc378daa952ba7f163c4a11628f55a4df523b3ef60405160405180910390a4809150509392505050565b610d45610b09565b73ffffffffffffffffffffffffffffffffffffffff16610d63610760565b73ffffffffffffffffffffffffffffffffffffffff1614610dc257610d86610b09565b6040517f118cdaa7000000000000000000000000000000000000000000000000000000008152600401610db99190611a87565b60405180910390fd5b565b600073ffffffffffffffffffffffffffffffffffffffff168273ffffffffffffffffffffffffffffffffffffffff1603610e365760006040517f64a0ae92000000000000000000000000000000000000000000000000000000008152600401610e2d9190611a87565b60405180910390fd5b6000610e4483836000610b23565b9050600073ffffffffffffffffffffffffffffffffffffffff168173ffffffffffffffffffffffffffffffffffffffff1614610eb85760006040517f73c6ac6e000000000000000000000000000000000000000000000000000000008152600401610eaf9190611a87565b60405180910390fd5b505050565b6000600660009054906101000a900473ffffffffffffffffffffffffffffffffffffffff16905081600660006101000a81548173ffffffffffffffffffffffffffffffffffffffff021916908373ffffffffffffffffffffffffffffffffffffffff1602179055508173ffffffffffffffffffffffffffffffffffffffff168173ffffffffffffffffffffffffffffffffffffffff167f8be0079c531659141344cd1fd0a4f28419497f9722a3daafe3b4186f6b6457e060405160405180910390a35050565b600073ffffffffffffffffffffffffffffffffffffffff168273ffffffffffffffffffffffffffffffffffffffff1603610ff457816040517f5b08ba18000000000000000000000000000000000000000000000000000000008152600401610feb9190611a87565b60405180910390fd5b80600560008573ffffffffffffffffffffffffffffffffffffffff1673ffffffffffffffffffffffffffffffffffffffff16815260200190815260200160002060008473ffffffffffffffffffffffffffffffffffffffff1673ffffffffffffffffffffffffffffffffffffffff16815260200190815260200160002060006101000a81548160ff0219169083151502179055508173ffffffffffffffffffffffffffffffffffffffff168373ffffffffffffffffffffffffffffffffffffffff167f17307eab39ab6107e8899845ad3d59bd9653f200f220920489ca2b5937696c31836040516110e59190611916565b60405180910390a3505050565b60008373ffffffffffffffffffffffffffffffffffffffff163b111561129c578273ffffffffffffffffffffffffffffffffffffffff1663150b7a02868685856040518563ffffffff1660e01b81526004016111519493929190611fdf565b6020604051808303816000875af192505050801561118d57506040513d601f19601f8201168201806040525081019061118a9190612040565b60015b611211573d80600081146111bd576040519150601f19603f3d011682016040523d82523d6000602084013e6111c2565b606091505b50600081510361120957836040517f64a0ae920000000000000000000000000000000000000000000000000000000081526004016112009190611a87565b60405180910390fd5b805160208201fd5b63150b7a0260e01b7bffffffffffffffffffffffffffffffffffffffffffffffffffffffff1916817bffffffffffffffffffffffffffffffffffffffffffffffffffffffff19161461129a57836040517f64a0ae920000000000000000000000000000000000000000000000000000000081526004016112919190611a87565b60405180910390fd5b505b5050505050565b606060405180602001604052806000815250905090565b6060600060016112c98461164e565b01905060008167ffffffffffffffff8111156112e8576112e7611c2e565b5b6040519080825280601f01601f19166020018201604052801561131a5781602001600182028036833780820191505090505b509050600082602083010190505b60011561137d578080600190039150507f3031323334353637383961626364656600000000000000000000000000000000600a86061a8153600a85816113715761137061206d565b5b04945060008503611328575b819350505050919050565b60006002600083815260200190815260200160002060009054906101000a900473ffffffffffffffffffffffffffffffffffffffff169050919050565b80806113fe5750600073ffffffffffffffffffffffffffffffffffffffff168273ffffffffffffffffffffffffffffffffffffffff1614155b1561153257600061140e84610a44565b9050600073ffffffffffffffffffffffffffffffffffffffff168373ffffffffffffffffffffffffffffffffffffffff161415801561147957508273ffffffffffffffffffffffffffffffffffffffff168173ffffffffffffffffffffffffffffffffffffffff1614155b801561148c575061148a81846108c0565b155b156114ce57826040517fa9fbf51f0000000000000000000000000000000000000000000000000000000081526004016114c59190611a87565b60405180910390fd5b811561153057838573ffffffffffffffffffffffffffffffffffffffff168273ffffffffffffffffffffffffffffffffffffffff167f8c5be1e5ebec7d5bd14f71427d1e84f3dd0314c0f7b2291e5b200ac8c7c3b92560405160405180910390a45b505b836004600085815260200190815260200160002060006101000a81548173ffffffffffffffffffffffffffffffffffffffff021916908373ffffffffffffffffffffffffffffffffffffffff16021790555050505050565b6115958383836117a1565b61164957600073ffffffffffffffffffffffffffffffffffffffff168373ffffffffffffffffffffffffffffffffffffffff160361160a57806040517f7e2732890000000000000000000000000000000000000000000000000000000081526004016116019190611b9d565b60405180910390fd5b81816040517f177e802f00000000000000000000000000000000000000000000000000000000815260040161164092919061209c565b60405180910390fd5b505050565b600080600090507a184f03e93ff9f4daa797ed6e38ed64bf6a1f01000000000000000083106116ac577a184f03e93ff9f4daa797ed6e38ed64bf6a1f01000000000000000083816116a2576116a161206d565b5b0492506040810190505b6d04ee2d6d415b85acef810000000083106116e9576d04ee2d6d415b85acef810000000083816116df576116de61206d565b5b0492506020810190505b662386f26fc10000831061171857662386f26fc10000838161170e5761170d61206d565b5b0492506010810190505b6305f5e1008310611741576305f5e10083816117375761173661206d565b5b0492506008810190505b612710831061176657612710838161175c5761175b61206d565b5b0492506004810190505b60648310611789576064838161177f5761177e61206d565b5b0492506002810190505b600a8310611798576001810190505b80915050919050565b60008073ffffffffffffffffffffffffffffffffffffffff168373ffffffffffffffffffffffffffffffffffffffff161415801561185957508273ffffffffffffffffffffffffffffffffffffffff168473ffffffffffffffffffffffffffffffffffffffff16148061181a575061181984846108c0565b5b8061185857508273ffffffffffffffffffffffffffffffffffffffff1661184083610acc565b73ffffffffffffffffffffffffffffffffffffffff16145b5b90509392505050565b6000604051905090565b600080fd5b600080fd5b60007fffffffff0000000000000000000000000000000000000000000000000000000082169050919050565b6118ab81611876565b81146118b657600080fd5b50565b6000813590506118c8816118a2565b92915050565b6000602082840312156118e4576118e361186c565b5b60006118f2848285016118b9565b91505092915050565b60008115159050919050565b611910816118fb565b82525050565b600060208201905061192b6000830184611907565b92915050565b600081519050919050565b600082825260208201905092915050565b60005b8381101561196b578082015181840152602081019050611950565b60008484015250505050565b6000601f19601f8301169050919050565b600061199382611931565b61199d818561193c565b93506119ad81856020860161194d565b6119b681611977565b840191505092915050565b600060208201905081810360008301526119db8184611988565b905092915050565b6000819050919050565b6119f6816119e3565b8114611a0157600080fd5b50565b600081359050611a13816119ed565b92915050565b600060208284031215611a2f57611a2e61186c565b5b6000611a3d84828501611a04565b91505092915050565b600073ffffffffffffffffffffffffffffffffffffffff82169050919050565b6000611a7182611a46565b9050919050565b611a8181611a66565b82525050565b6000602082019050611a9c6000830184611a78565b92915050565b611aab81611a66565b8114611ab657600080fd5b50565b600081359050611ac881611aa2565b92915050565b60008060408385031215611ae557611ae461186c565b5b6000611af385828601611ab9565b9250506020611b0485828601611a04565b9150509250929050565b600080600060608486031215611b2757611b2661186c565b5b6000611b3586828701611ab9565b9350506020611b4686828701611ab9565b9250506040611b5786828701611a04565b9150509250925092565b600060208284031215611b7757611b7661186c565b5b6000611b8584828501611ab9565b91505092915050565b611b97816119e3565b82525050565b6000602082019050611bb26000830184611b8e565b92915050565b611bc1816118fb565b8114611bcc57600080fd5b50565b600081359050611bde81611bb8565b92915050565b60008060408385031215611bfb57611bfa61186c565b5b6000611c0985828601611ab9565b9250506020611c1a85828601611bcf565b9150509250929050565b600080fd5b600080fd5b7f4e487b7100000000000000000000000000000000000000000000000000000000600052604160045260246000fd5b611c6682611977565b810181811067ffffffffffffffff82111715611c8557611c84611c2e565b5b80604052505050565b6000611c98611862565b9050611ca48282611c5d565b919050565b600067ffffffffffffffff821115611cc457611cc3611c2e565b5b611ccd82611977565b9050602081019050919050565b82818337600083830152505050565b6000611cfc611cf784611ca9565b611c8e565b905082815260208101848484011115611d1857611d17611c29565b5b611d23848285611cda565b509392505050565b600082601f830112611d4057611d3f611c24565b5b8135611d50848260208601611ce9565b91505092915050565b60008060008060808587031215611d7357611d7261186c565b5b6000611d8187828801611ab9565b9450506020611d9287828801611ab9565b9350506040611da387828801611a04565b925050606085013567ffffffffffffffff811115611dc457611dc3611871565b5b611dd087828801611d2b565b91505092959194509250565b60008060408385031215611df357611df261186c565b5b6000611e0185828601611ab9565b9250506020611e1285828601611ab9565b9150509250929050565b7f4e487b7100000000000000000000000000000000000000000000000000000000600052602260045260246000fd5b60006002820490506001821680611e6357607f821691505b602082108103611e7657611e75611e1c565b5b50919050565b6000606082019050611e916000830186611a78565b611e9e6020830185611b8e565b611eab6040830184611a78565b949350505050565b7f4e487b7100000000000000000000000000000000000000000000000000000000600052601160045260246000fd5b6000611eed826119e3565b91507fffffffffffffffffffffffffffffffffffffffffffffffffffffffffffffffff8203611f1f57611f1e611eb3565b5b600182019050919050565b600081905092915050565b6000611f4082611931565b611f4a8185611f2a565b9350611f5a81856020860161194d565b80840191505092915050565b6000611f728285611f35565b9150611f7e8284611f35565b91508190509392505050565b600081519050919050565b600082825260208201905092915050565b6000611fb182611f8a565b611fbb8185611f95565b9350611fcb81856020860161194d565b611fd481611977565b840191505092915050565b6000608082019050611ff46000830187611a78565b6120016020830186611a78565b61200e6040830185611b8e565b81810360608301526120208184611fa6565b905095945050505050565b60008151905061203a816118a2565b92915050565b6000602082840312156120565761205561186c565b5b60006120648482850161202b565b91505092915050565b7f4e487b7100000000000000000000000000000000000000000000000000000000600052601260045260246000fd5b60006040820190506120b16000830185611a78565b6120be6020830184611b8e565b939250505056fea26469706673582212209f0b5687592353a50a5b18b4a82bfa0cea14dafad88805ac16550aa5c9612e3a64736f6c63430008140033",
  "linkReferences": {},
  "deployedLinkReferences": {}
}